:020000040800F2
:1000000050320020890200085D1B0008EF1A00082A
:10001000F31A000801100008E16400080000000065
:10002000000000000000000000000000196100084E
:100030006112000800000000BD0A00083D620008CF
:10004000A3020008A3020008A3020008A3020008FC
:10005000A3020008A3020008A3020008A3020008EC
:10006000A3020008A3020008A3020008A3020008DC
:10007000A3020008A3020008A3020008A3020008CC
:10008000A3020008A3020008A3020008A3020008BC
:10009000A3020008A3020008A3020008A3020008AC
:1000A000A3020008A3020008A3020008A30200089C
:1000B000A3020008A3020008A3020008A30200088C
:1000C000A3020008A3020008A3020008A30200087C
:1000D000A3020008A3020008A3020008A30200086C
:1000E000A3020008A3020008A3020008A30200085C
:1000F000A3020008A3020008A3020008A30200084C
:10010000A3020008A3020008A3020008A30200083B
:10011000A3020008A3020008A3020008A30200082B
:10012000A3020008A3020008A3020008A30200081B
:10013000A302000859140008A3020008A302000843
:10014000A3020008A3020008A3020008A3020008FB
:10015000A3020008A3020008A3020008A3020008EB
:10016000A3020008A3020008A3020008A3020008DB
:10017000A3020008A3020008A3020008A3020008CB
:10018000A3020008A302000800F002F800F06DF8D6
:100190000AA090E8000C82448344AAF10107DA45E2
:1001A00001D100F062F8AFF2090EBAE80F0013F0C7
:1001B000010F18BFFB1A43F00103184788390100EB
:1001C000A83901000A444FF0000C10F8013B13F06D
:1001D000070408BF10F8014B1D1108BF10F8015BA0
:1001E000641E05D010F8016B641E01F8016BF9D193
:1001F00013F0080F1EBF10F8014BAD1C0C1B09D1EA
:100200006D1E58BF01F801CBFAD505E014F8016B5B
:1002100001F8016B6D1EF9D59142D6D370470000ED
:100220000023002400250026103A28BF78C1FBD8FF
:10023000520728BF30C148BF0B607047642900F0E7
:10024000BB80752900F0B880782900F0F18063291F
:1002500000F03783732900F03C83002070471FB5FE
:1002600013F030FA1FBD10B510BD00F097FB11461A
:10027000FFF7F5FF0AF068FB00F0B5FB03B4FFF7EA
:10028000F2FF03BC06F035F90948804709480047EA
:10029000FEE7FEE7FEE7FEE7FEE7FEE7FEE7FEE736
:1002A000FEE7FEE704480549054A064B7047000093
:1002B0005162000889010008502C002050320020B3
:1002C000502E0020502E002072B6704762B6704744
:1002D000EFF3108072B6704780F31088704730BF1C
:1002E000704720BF7047B0FA80F0704790FAA0F0D6
:1002F000B0FA80F0704790FAA0F0704770470000A5
:100300000FB4044910B503AA029800F0E7FA10BC34
:100310005DF814FB2000002070B504468569006874
:10032000C10601D5302600E02026C00707D070BDE9
:10033000D4E9012130469047206A401C20626D1E9E
:10034000F6D570BD70B5044685690078C00707D141
:1003500070BDD4E9012120209047206A401C206212
:100360006D1EF6D570BD70B50C460546012A05D048
:100370002878800600D5EA69002302E0012305E021
:100380005B1C934202D2E05C0028F9D1A869E61810
:10039000C01AA861286A184428622846FFF7BCFFE3
:1003A00004E0D5E9012114F8010B9047B442F8D3D9
:1003B0002846FFF7C7FF70BD2DE9F041064600242F
:1003C00010687529314616A510D0AFF300800028BB
:1003D00002DA404213A507E031688A0701D512A569
:1003E00002E0490704D511A5012401E0AFF3008024
:1003F00000210A2206F1240709E0B0FBF2FCB0FB61
:10040000F2F302FB1C00303078541846491C0028D7
:10041000F3D123462A463046BDE8F04100F0EEB95C
:10042000000000002D0000002B0000002000000054
:1004300070B504460D4621461068AFF30080218850
:10044000090502D50F4A7A4402E00E4A7A440E3278
:10045000002104F1240305E000F00F060009965D79
:100460005E54491C0028F7D120780023000704D5EA
:10047000702D02D009B1022311322046BDE8704030
:1004800000F0BCB95E3501002DE9F05F89460446F5
:100490004FF0000ADFF824B1FB44C0F820A020464A
:1004A000E168884700287DD0252806D0D4E90121BD
:1004B0009047206A401C2062F1E700255F462046F5
:1004C000E16888472028064607DB312E05D2B81997
:1004D00010F8200C08B10543F1E7A80701D525F075
:1004E0000405C4F81CA00027C4F818A02A2E09D0BF
:1004F000304605F0F7FF38B304EB8708303EC8F804
:10050000186019E059F8041B204604EB870291613A
:10051000E1688847012F064618D1E069002820DAF3
:1005200025F020051DE0D8F8180000EB800006EB50
:1005300040003038C8F818002046E1688847064671
:1005400005F0D0FF0028EED1012F0AD02E2E08D1C1
:100550002046E16888477F1C0646022F45F02005AB
:10056000C4DBA069002803DA404245F00105A06120
:10057000E80701D025F01005A6B1A6F14100192821
:1005800002D8203645F400654A46314620462560AB
:100590004D46FFF753FE60B1012807D0ED1D25F051
:1005A000070000E007E000F1080978E705F1040919
:1005B00075E730467AE7206ABDE8F09F34350100E0
:1005C00040EA010310B59B070FD1042A0DD310C8D0
:1005D00008C9121F9C42F8D020BA19BA884201D922
:1005E000012010BD4FF0FF3010BD1AB1D30703D06A
:1005F000521C07E0002010BD10F8013B11F8014B20
:100600001B1B07D110F8013B11F8014B1B1B01D13B
:10061000921EF1D1184610BD10B5431C02E010F82F
:10062000011B71B18107FAD14FF0013202C88C1A57
:100630008C4314EAC211F9D0C01A0A0603D0C01EB6
:1006400010BDC01A10BD0A0401D0801E10BD0902E1
:10065000FCD0401E10BD032A40F2308010F0030C85
:1006600000F0158011F8013BBCF1020F624498BF05
:1006700011F801CB00F8013B38BF11F8013BA2F1A2
:10068000040298BF00F801CB38BF00F8013B11F01D
:10069000030300F03581083AC0F0088051F8043BAC
:1006A000083A51F804CBA0E80810F5E7121D5CBF2A
:1006B00051F8043B40F8043BAFF30080D20724BF5D
:1006C00011F8013B11F801CB48BF11F8012B24BFF1
:1006D00000F8013B00F801CB48BF00F8012B704740
:1006E0004FF000020429C0F0128010F0030C00F05B
:1006F0001B80CCF1040CBCF1020F18BF00F8012BD9
:10070000A8BF20F8022BA1EB0C0100F00DB85FEAA6
:10071000C17C24BF00F8012B00F8012B48BF00F872
:10072000012B70474FF0000200B5134694469646E1
:10073000203922BFA0E80C50A0E80C50B1F12001F4
:10074000BFF4F7AF090728BFA0E80C5048BF0CC0A2
:100750005DF804EB890028BF40F8042B08BF704700
:1007600048BF20F8022B11F0804F18BF00F8012B72
:10077000704700004FF0013C50F8042B51F8043B47
:100780009A4221D1A2EB0C03934313EACC1317D165
:1007900050F8042B51F8043B9A4215D1A2EB0C03FC
:1007A000934313EACC130BD150F8042B51F8043BBC
:1007B0009A4209D1A2EB0C03934313EACC13DBD08A
:1007C0004FF00000704700BFD01A01BAB1FA81F1B2
:1007D00001F0180122FA01F0CB40C1F12001DBB297
:1007E000C0B2C01A2CFA01F3D11A914311EAC31115
:1007F000E6D1704770477047704770472DE9F04762
:100800000D4699469246044600F124080168880680
:1008100004D5E06921F01001216000E00120A84228
:1008200001DD471B00E00027A1697A1902EB0900EE
:10083000081AA0612078C00602D42046FFF76CFD9C
:10084000002608E0D4E901211AF806009047206A42
:10085000401C761C20624E45F4DB2078C0060AD589
:100860002046FFF759FD06E0D4E9012130209047EA
:10087000206A401C2062381EA7F10107F4DC07E063
:10088000D4E9012118F805009047206A401C206235
:10089000281EA5F10105F3DC2046FFF753FD207863
:1008A000000602D50220BDE8F0870120FBE710B565
:1008B000436913B1AFF3008001E0FFF754FD01205D
:1008C00010BD127800F124010A7000224A70012242
:1008D000EDE711684FF0FF32E9E70000074B70B514
:1008E0000D467B4400F043F80446284600F052F8D9
:1008F00010B14FF0FF3070BD204670BD3F7D00004D
:1009000010B5203AC0F00B80B1E81850203AA0E8AA
:100910001850B1E81850A0E81850BFF4F5AF5FEADE
:10092000027C24BFB1E81850A0E8185044BF18C991
:1009300018C0BDE810405FEA827C24BF51F8043B38
:1009400040F8043B08BF7047D20728BF31F8023B8C
:1009500048BF11F8012B28BF20F8023B48BF00F820
:10096000012B704701694A1C02610878704700B585
:100970008FB0CDE901310021059105497944CDE9D8
:10098000031011466846FFF77FFD0FB000BD000061
:10099000E5FFFFFF007B00F080007047754600F028
:1009A0002BF8AE4605006946534620F00700854601
:1009B00018B020B5FFF776FCBDE820404FF00006E8
:1009C0004FF000074FF000084FF0000B21F0070137
:1009D000AC46ACE8C009ACE8C009ACE8C009ACE87A
:1009E000C0098D46704710B50446AFF3008020461D
:1009F000BDE81040FFF742BC00487047EC2B0020D8
:100A0000EFF3098141B1F1EE101A40F8041D20ED19
:100A1000200A3E490A6810607047B0EC200A02C8FC
:100A2000E1EE101A3A490A681060704772B64EF645
:100A30002250CEF2000040F2FF01C0F2000101702E
:100A40004FF0000080F3098803F070F840F2400096
:100A5000C2F20000016881F3088840F28E00C2F201
:100A6000000040F28F01C2F200010A78027040F2E9
:100A70001815C2F2000540F21C11C2F200010A680A
:100A80002A60106880F30988EFF3148040F00200B8
:100A900080F31488BFF36F8FBDE8F00F0FBCBDE883
:100AA000005006BC62B608471A484FF080510160FA
:100AB000704718484FF080510160704772B6EFF3ED
:100AC000098020E9F00F40F21815C2F200052E68E7
:100AD0003060744603F02AF840F28E00C2F2000043
:100AE00040F28F01C2F200010A78027040F21C113C
:100AF000C2F200010A682A6044F0F40E1068B0E8FF
:100B0000F00F80F3098862B67047000018010020DA
:100B10001C01002004ED00E008B5002000900DE06D
:100B20000748006808B9012000E000200449086077
:100B30006A4600214FF4FA7003F062F8F0E7000013
:100B4000980243428AB000200990002409A802F0CC
:100B50003DFA00F0C5FA09AA0121084601F0CAFED3
:100B600000BF00BFFFF7B4FB044600BF00F0E4FA8B
:100B700000BF09A8072100220592CDE906210890AF
:100B800010464FF4807119221A4BCDE90132CDE99C
:100B9000031004200023184A18A100901C4802F0FA
:100BA0009FFA09A8032100220592CDE906210890A9
:100BB000104640210622174BCDE90132CDE9031042
:100BC0003D200023144A15A10090184802F088FA2D
:100BD00000BF00F0CBFA00BF2046FFF77DFB00BF4F
:100BE00000BF05E009AA00214FF4FA7003F008F8ED
:100BF000F8E7000044210020310C0008417070200B
:100C00005461736B20546370205365727665720073
:100C100078200020781F0020190B000841707020F8
:100C20005461736B204C656400000000AC1E002012
:100C300070B590B0064600200F900790089009907C
:100C40000A90142102A8FFF76DFD102001904101C8
:100C50004548FFF745FD45A0FFF752FB062201215D
:100C6000022009F0EBFD4849086002208DF82D00B4
:100C7000002009F0CDFB0C9041F6997009F0D5FBEE
:100C8000ADF82E0010220BA93F48006809F0C2FA07
:100C90000446002C06DA3DA0FFF732FB3A48006814
:100CA00009F050FB32213848006809F0D7FB0446B0
:100CB000002C06DA39A0FFF723FB3348006809F05F
:100CC00041FB45E001AA07A92F48006809F042F955
:100CD0003649086008460068002803DA34A0FFF7A8
:100CE0000FFB36E036A0FFF70BFB08A808F058FF13
:100CF00005461422294602A8FFF7ADFC02A937A039
:100D0000FFF7FEFABDF81E1038A0FFF7F9FA1DE054
:100D10004FF400711448FFF7E3FC00234FF4007216
:100D200011492248006809F0EBFB0446002C08DC5E
:100D3000214633A0FFF7E4FA1C48006809F002FBE3
:100D400005E0094A214632A0FFF7DAFAE0E700BFE2
:100D5000B8E700BF0C48006809F0F4FA0FA90020BA
:100D600002F0AEFA10B070BDC30100205443502011
:100D7000536572766572204170702053746172748D
:100D80002E2E2E0D0A0000002001002062696E64E4
:100D9000206661696C65640D0A0000006C697374FB
:100DA000656E206572726F720D0A000024010020CA
:100DB000616363657074206572726F720D0A000062
:100DC0000A436C69656E7420697320636F6E6E658B
:100DD000637474696E672E2E2E0A0000436C696579
:100DE0006E74204950203A2025730A00436C6965CF
:100DF0006E7420506F72743A2025640A000000005F
:100E000072656376206572726F723A2025640A00FB
:100E10007265637620737563636573732025642040
:100E20003A200A25730A00007047000010B500241C
:100E300000BF00BFFFF74CFA044600BF00F07CF98A
:100E400000BF0F480F4908600F481049086010485C
:100E5000104908601048114908601148114908609C
:100E600011481249086012481249086000BF00F09A
:100E70007DF900BF2046FFF72FFA00BF00BF10BD6D
:100E8000BD0E00084C000020CD0F000850000020CF
:100E9000CF0F000854000020290E00085800002041
:100EA000B90E00085C000020D10F0008600000208F
:100EB000D30F0008640000207047000010B50446FE
:100EC0000EA0FFF71DFA1CA0216AFFF719FA94F88B
:100ED00037101FA0FFF714FA23A0216CFFF710FAB8
:100EE00028A0616AFFF70CFA7020015B2DA0FFF7C4
:100EF00007FA02A0FFF704FA10BD00000D0A3D3DFD
:100F00003D3D3D3D3D3D3D3D3D3D3D3D3D3D3D3D11
:100F10003D3D3D3D3D3D3D3D3D3D3D3D3D3D3D3D01
:100F20003D3D3D3D3D3D3D3D3D3D3D3D3D3D3D3DF1
:100F30003D3D0D0A000000002A2A2020202020200C
:100F40005461736B204E616D65203A25730D0A0064
:100F50002A2A2020202020205461736B205072699F
:100F60006F203A25640D0A002A2A20202020202004
:100F70005461736B2053746B53697A65203A25640E
:100F80000D0A00002A2A2020202020205461736BA3
:100F90002053746B42617365507472203A25237834
:100FA0000D0A00002A2A2020202020205461736B83
:100FB000204D7367512E4E6272456E74726965736F
:100FC00053697A65203A2564000000007047704735
:100FD000704770471FB5684605F02AF8009804B0BE
:100FE00010BD704770B5FFF7F5FF04460348006871
:100FF000B4FBF0F5284602F0DBFE70BD3037010887
:1010000000BFFEE710B500F0FBF800F003F800F0B9
:10101000F3F810BD70B50026002018490880184963
:10102000088018490860184908601849086018497C
:10103000086018490860002400BFFFF749F9064618
:1010400000BF00250BE000201049086000F074F894
:1010500000F08CF80D4800680444681C85B2002D2F
:10106000F1D00C4804600020084908600849086075
:1010700000BF3046FFF730F900BF70BD28000020E8
:101080002A0000202C000020300000203800002022
:101090003C0000203400002001460846044A126843
:1010A000904203D9024A1268801A00E0002070477B
:1010B0003400002070B5002500BFFFF709F9054690
:1010C00000BF0648046800BF2846FFF705F900BFC7
:1010D0002046FFF7E1FF0646304670BD380000208D
:1010E00070B50025FFF7E6FF044600BFFFF7F0F8F4
:1010F000054600BF00200449086000BF2846FFF7EE
:10110000EBF800BF204670BD3800002070B5002508
:1011100000BFFFF7DDF8054600BF0648046800BFC2
:101120002846FFF7D9F800BF2046FFF7B5FF06466F
:10113000304670BD3C00002010B509480088401CB6
:10114000074908800748008818B900F083F8064965
:10115000086004480088401C0249088010BD000057
:10116000280000202A0000202C00002010B50F4885
:101170000088401E0D49088008460088A0B900F08C
:1011800069F80B490860084600680A490968441A6A
:1011900009480068A04201D2074804600748006877
:1011A000A04201D20548046010BD00002A000020C2
:1011B000300000202C000020380000203C000020DF
:1011C00010B5002400BF00BFFFF782F8044600BF3F
:1011D000FFF7B2FF00BF1021064800F08CFC00BFF3
:1011E000FFF7C4FF00BF2046FFF776F800BF00BF3F
:1011F00010BD0000D003002010B5FFF7E1FF10BDC7
:1012000010B500200249086000F00AF810BD000087
:1012100024000020014908607047000024000020DD
:1012200010B5FFF7D7FE04460848006840F080700C
:10123000064908600020064948600846006840F0FA
:10124000010008602046FFF7E5FF10BDFCED00E05F
:10125000001000E00149486870470000001000E0FD
:10126000704700000149486170470000009002404B
:1012700029B1064AD2690243044BDA6104E0034A09
:10128000D2698243014BDA6170470000009002404E
:1012900030B10749896941F00201054A916105E0D1
:1012A0000349896921F00201014A916170470000F8
:1012B0000090024070B50C4613460021124D286084
:1012C00000BF18E000EB01124FF00045156044F23A
:1012D000F4555560C1EBC11505EB450504EB8505DB
:1012E00095605D1E8D4204D900EB01151035D56067
:1012F00000E0D060491C9942E4D3044DE860044DFD
:10130000044E356070BD00001400002000900240C3
:10131000C40300201800002030B10749896941F456
:101320000051054A916105E00349896921F40051A2
:10133000014A9161704700000090024030B50C46B0
:10134000134600210F4D286000BF15E000EB01128D
:101350004FF480151560C1EBC11505EB450504EB95
:10136000850595605D1E8D4204D900EB0115103591
:10137000D56000E0D060491C9942E7D3024D286156
:1013800030BD0000100000200090024002680A43B7
:101390000260704710B50121480604F029FE0021C3
:1013A0004FF0007004F024FE10BD01B581B00020A4
:1013B00000900198009002E00098401E0090009874
:1013C0000028F9D10CBD000008B5002000900848A5
:1013D000806940F480100649886108468069009061
:1013E0004FF6FF70FFF7E1FF01490098886108BDE3
:1013F0000090024001460020034A52690A400AB1A7
:10140000012000E00020704700900240014608687B
:10141000C0F30D40704700B502460023106800F08D
:10142000004058B9106800F4004038B9106800F462
:10143000807018B11046FFF7E9FF0346184600BD5B
:1014400000200449096801F0010109B1012000E010
:10145000002070470090024010B54FF48030FFF735
:10146000C9FFA8B14FF48030FFF7C4FF60B102E0BC
:10147000084806F0C7FF08480068FFF7CCFF0028BF
:10148000F6D14020FFF7EEFE4FF48030FFF7EAFE82
:1014900010BD0000781E0020140000202DE9F0414E
:1014A00088B004460F464FF0000800250020079042
:1014B000B24E029001200190B148056925F01C054B
:1014C00003A804F0B5FD049EAE48864205D3AE489D
:1014D000864202D245F008051AE0AB48864205D3A1
:1014E000A648864202D245F00C0511E0A348864288
:1014F00003D3A648864200D20AE0A448864205D318
:10150000A348864202D245F0040501E045F01005EB
:101510009B4805614FF400420021384600F048FA2C
:1015200010B9002001906AE09A48FFF73EFF20685A
:10153000002850D000BF0298401C0290012138467C
:1015400000F08CF900F0040018B993490298884221
:10155000F1D391490298884202D1002001904EE0D7
:10156000002002904FF480520021384600F020FA0B
:1015700008B90020019000BF0298401C0290012190
:10158000384600F06BF900F0200018B98249029843
:101590008842F1D380490298884202D1002001900C
:1015A0002DE0002002901F21384600F057F98046B8
:1015B00008F0100018B14FF40060206201E0002034
:1015C000206208F0040010B10020606116E04FF4C2
:1015D0008040606112E0206AC0F3CF006169C1F30E
:1015E0004F0140EA01020021384600F0E1F908B954
:1015F000002001906FF07F40FFF7D7FE00BF0198F9
:1016000020B94FF400602062C00060615C4805684A
:1016100062480540D4E901010843E16808432169B3
:10162000084361690843A1690843E1690843216AE5
:101630000843616A0843A16A0843E16A0843216BD1
:101640000843616B084305434D48056005684FF644
:10165000FF70FFF7AAFE4A480560D4E90E0108436F
:10166000216C0843616C0843A16C0843E16C08439A
:10167000216D0843616D084341494860084645684B
:101680004FF6FF70FFF791FE3D4845603C49A06D65
:101690008860E06DC860084685694FF64170054076
:1016A000B4F86010606E40EA0140A16E0843E16E3C
:1016B0000843216F0843616F084305433048856143
:1016C00085694FF6FF70FFF770FE2D488561D4E9FC
:1016D0001E0108432A49C8610846C5694FF6FF70D4
:1016E000FFF763FE2648C5612D4885692D480540F2
:1016F000D4E920010843D4F888100843D4F88C10AA
:101700000843D4F890100843D4F894100843D4F850
:1017100098100843D4F89C100843D4F8A01008434C
:1017200005431F48856185694FF6FF70FFF73DFE51
:101730001B488561D4E929010843D4F8AC1008435B
:10174000D4F8B0100843D4F8B41040EA8100D4F8BB
:10175000B810084340F400001149086008460568C5
:101760004FF6FF70FFF721FE0D4805600198012834
:1017700002D108B0BDE8F0810020FAE700879303AA
:1017800000800240002D3101C00E160200E1F50577
:1017900080D1F008FFFF0F00FFFF04000F8120FF42
:1017A00000900240233FDEF810B50B794C7943EAF4
:1017B0000422094B03441A64CB781B068C7843EA55
:1017C00004434C7843EA04230C7843EA0402024BB6
:1017D00003445A6410BD00000080024038B504463E
:1017E0000020009034B10C48006840F004000A4921
:1017F000086005E00848006820F004000649086019
:101800000548006800904FF6FF70FFF7CEFD0249D3
:101810000098086038BD00000080024038B50446DA
:101820000020009034B10C48006840F008000A49DC
:10183000086005E00848006820F0080006490860D4
:101840000548006800904FF6FF70FFF7AEFD0249B3
:101850000098086038BD00000080024018B50246BC
:101860000B460021002000901548016901F01C0181
:101870004FF4784000EAC22001434FF4F86000EAD8
:101880008310014321F0020141F001010C48016184
:1018900000BF0098401C00900948016901F0010058
:1018A00018B1084C0098A042F3D3064C0098A0420F
:1018B00001D1002018BD0248406980B2FAE700005B
:1018C00000800240FFFF04000348006840F0010070
:1018D00001490860704700000090024010B50120E7
:1018E000FFF79CFF0120FFF779FFFFF76DFD012057
:1018F000FFF712FD0120FFF7CBFC10BD01210160B5
:10190000002141608160C16001614FF4804141610B
:1019100000218161C1614FF40061016200214162D7
:101920008162C162016341638163C16340210164DB
:101930002021416400218164C164016541658165A4
:10194000C16501668021416600218166C16601672B
:1019500041678167C1674FF08061C0F8801049100E
:10196000C0F884100021C0F888104FF40011C0F8AE
:101970008C100021C0F89010C0F89410C0F8981096
:10198000C0F89C10C0F8A0104FF00071C0F8A4106F
:101990004912C0F8A8108901C0F8AC104912C0F86B
:1019A000B0100021C0F8B410C0F8B81070470000A3
:1019B00038B503460C460021002000901448016908
:1019C00001F01C014FF4784000EAC32001434FF4BA
:1019D000F86000EA8410014341F0020141F0010186
:1019E0000B484261016100BF0098401C009008480C
:1019F000016901F0010018B1064D0098A842F3D327
:101A0000044D0098A84201D1002038BD0120FCE718
:101A100000800240FFFF0400F0B50A4600210023C9
:101A2000002400BF3DE0012505FA01F3156805EA31
:101A300003049C4234D105684F000326BE40B543E1
:101A4000056015794E00B540066835430560157987
:101A5000012D02D01579022D16D185684F0003267D
:101A6000BE40B543856055794E00B5408668354324
:101A70008560456801268E40B54345604568967986
:101A80008E40B6B235434560C5684F000326BE4060
:101A9000B543C560D5794E00B540C6683543C560CD
:101AA000491C1029BFD3F0BDF0B5002300244D0719
:101AB000ED0E02FA05F3CE1000F1200555F8265080
:101AC0004E07F70E0F26BE40B543CF1000F120069B
:101AD00046F82750CE1000F1200555F8265045EA6B
:101AE0000304CE1000F1200545F82640F0BD00BFEC
:101AF000FEE700BFFEE730B505460C462246002152
:101B0000284600F001F830BD2DE9F04105460B46AE
:101B100094460027002402E03F021F43641C042C6B
:101B2000FAD3604605F00306294646B1344603E081
:101B300001F8013B401E641C08B1042CF8D30A468E
:101B400001E080C2001F0428FBD2114602E001F828
:101B5000013B401E0028FAD1BDE8F081704700002B
:101B600070B5002100230F22C4781CB3174C2468E1
:101B700004F4E064C4F5E064C4F30721C1F1040493
:101B8000E3B20A4144789C40E1B284781440214396
:101B90000C07210E0E4C05786155047804F01F05E2
:101BA0000124AC4005786D11AD0005F1E025C5F8C4
:101BB000004109E0047804F01F050124AC40054D04
:101BC0000678761145F8264070BD00000CED00E067
:101BD00000E400E080E100E002490143024A1160B4
:101BE000704700000000FA050CED00E070470000AF
:101BF00010B50348006810B101480068804710BD67
:101C00005800002070B5044600F0BCF8002045499B
:101C100008704549087045490870454908604549BC
:101C200008604549087045490870454908704549AC
:101C300008604549086045490860454908704548BD
:101C400000680A21B0FBF1F043490860434800688E
:101C500058B14348056845B14048066803E0761E20
:101C6000002028602D1D002EF9D100203D4908607C
:101C70003D4908603D4908603D4908603D490860AC
:101C80003D4908603D4908603D49087002F0A8FDE3
:101C900002F090FE204602F077F9208800B170BD76
:101CA000204602F0DBF9208800B1F8E7204602F078
:101CB000E1F9208800B1F2E7204602F069FB2088B4
:101CC00000B1ECE7204602F003FE208800B1E6E711
:101CD000204603F00BF8208800B1E0E7204603F02F
:101CE0006FFB208800B1DAE7204602F07FF92088F8
:101CF00000B1D4E7204603F0EBFF208800B1CEE727
:101D0000204603F031FA208800B1C8E7204604F0ED
:101D100043F8208800B1C2E702F062F8FFF766FFDF
:101D200000BFBCE76C00002074000020A800002069
:101D3000180100201C0100208E0000208F000020D0
:101D4000900000209C000020A0000020A4000020A3
:101D5000B000002030370108AC0000200037010837
:101D6000FC3601084C0000205000002054000020E8
:101D7000580000205C00002060000020640000206B
:101D8000DE000020064800680649096800EB810073
:101D9000054908600846006820F0070008607047A1
:101DA000FC360108003701084000002010B500246F
:101DB0002D480078012800D010BD00BFFEF788FA3A
:101DC000044600BF2948007828B900BF2046FEF726
:101DD00083FA00BFF0E725480078401E23490870C9
:101DE00008460078002805DD00BF2046FEF774FA9B
:101DF00000BFE1E71E480078002805DD00BF20464F
:101E0000FEF76AFA00BFD7E702F0D6FC194908705E
:101E10000846007800EB4000174951F820001749A8
:101E200008600846006816490968884205D100BF65
:101E30002046FEF751FA00BFBEE710480068D0F810
:101E40009400401C0D490968C1F894000D480068D1
:101E5000401C0C490860FEF72CFE00BF2046FEF730
:101E60003BFA00BF00BFA7E7740000206C00002011
:101E7000A80000208F000020181400201C01002062
:101E800018010020D40000202DE9F04104460E4640
:101E9000154600271C480078002804DD42F6E16062
:101EA0002880BDE8F0811CB945F6C3502880F8E7CA
:101EB00000BF00BFFEF70CFA074600BFFFF73CF972
:101EC00000BF12482060666000202062606284F8D3
:101ED0002800E06204F1080002F00BFB204602F04B
:101EE000E7F90B480088401C0949088000BFFFF74C
:101EF0003DF900BF3846FEF7EFF900BF00BF0020F4
:101F0000288000BFCDE700006C0000204D555458DC
:101F10008C0000202DE9F04788B005468946174619
:101F20001C46109E4FF0000A7F480078002805DD0F
:101F300046F2AE10308008B0BDE8F0871DB945F616
:101F4000C3503080F7E71FB1B7F5004F02D100E072
:101F500000BF03E045F625603080ECE700BF734921
:101F60002868884203D045F6C4503080E3E70CB1BE
:101F70000020206000BF00BFFEF7AAF9824600BF24
:101F8000FFF7DAF800BF95F82800C8B9684800687C
:101F90006862012085F828000CB1E86A20602946B3
:101FA0006348006802F09CF900BFFFF7DFF800BF4C
:101FB0005046FEF791F900BF00BF00203080BAE71D
:101FC0005B49686A0968884225D195F82800FF288E
:101FD0000CD100BFFFF7CAF800BF5046FEF77CF9EE
:101FE00000BF00BF45F284703080A4E795F8280058
:101FF000401C85F828000CB1E86A206000BFFFF79C
:10200000B5F800BF5046FEF767F900BF00BF45F2C4
:10201000827030808FE707F4004060B100BFFFF7A7
:10202000A5F800BF5046FEF757F900BF00BF46F2C3
:10203000B01030807FE73F48007800280CDD00BFFB
:10204000FFF794F800BF5046FEF746F900BF00BF07
:1020500046F6635030806EE7D5F8248098F8370054
:102060003349096891F83710884206DD3048006826
:1020700090F83710404603F0F3F84B460422294607
:10208000684602F091F900BFFFF770F800BF5046B4
:10209000FEF722F900BF00BF00F09CFB00BF00BFAD
:1020A000FEF716F9824600BFFFF746F800BF20484A
:1020B000006890F8350030B101280CD002281AD001
:1020C000032821D110E01CB119480068806C206001
:1020D000002030801CE01CB115480068806C206036
:1020E00046F2A910308013E00CB10020206047F2C6
:1020F000D92030800CE01CB10D480068806C206055
:1021000045F6C250308003E046F62E60308000BFB6
:1021100000BF00BFFFF72AF800BF5046FEF7DCF80B
:1021200000BF00BF00BF06E76C0000204D555458AB
:1021300018010020A80000202DE9F84F0446894628
:1021400015464FF0000B65480078002804DD46F284
:102150000E202880BDE8F88F1CB945F6C3502880B2
:10216000F8E7B9F1000F03D0B9F5004F02D100E054
:1021700000BF03E045F625602880EBE700BF584923
:102180002068884203D045F6C4502880E2E700BFAB
:1021900000BFFEF79DF8834600BFFEF7CDFF00BFEE
:1021A0005049606A096888420CD000BFFEF7DEFF24
:1021B00000BF5846FEF790F800BF00BF45F281709F
:1021C0002880C7E7FFF746F880462834C4F8048023
:1021D0002078401E207014F8280900280CDD00BF6C
:1021E000FEF7C4FF00BF5846FEF776F800BF00BFF9
:1021F00045F283702880ADE721463A48006802F036
:10220000B9F804F1080ABAF8080078B90020606249
:1022100084F8280000BFFEF7A9FF00BF5846FEF76C
:102220005BF800BF00BF0020288093E72D480068BE
:1022300090F837002B49096891F83810884228D067
:102240002848006802F080F806462648006890F8A2
:102250003810B14204DA2348006890F8380000E0F2
:10226000304606461F48006890F83700B04210DA42
:102270001C48006802F026FC1A48006880F83760A5
:10228000304602F0B9FA1748006802F0DBFB164846
:102290000670DAF8000087686762012084F8280079
:1022A0002146384602F01CF800231A4639462046DB
:1022B000CDF8008002F0FFF900BFFEF757FF00BF26
:1022C0005846FEF709F800BF00BF09F4004008B9FE
:1022D00000F080FA0020288000BF3BE76C0000205F
:1022E0004D555458180100208E0000202DE9F04172
:1022F00004460F4616461D464FF000081E4800785B
:10230000002804DD42F6E1602880BDE8F0811CB9B8
:1023100045F6C3502880F8E71EB946F2945028804D
:10232000F3E700BF00BFFDF7D3FF804600BFFEF715
:1023300003FF00BF114820606760314604F12000B0
:1023400001F02CFF04F1080002F0D3F8204602F05F
:102350008FFA0B480088401C0949088000BFFEF72F
:1023600005FF00BF4046FDF7B7FF00BF00BF0020DC
:10237000288000BFC9E700006C000020515545557A
:10238000980000202DE9FC5F054688461446002091
:1023900000904E480078002805DD43F2C9202080D7
:1023A0000020BDE8FC9F25B945F6C35020800020E1
:1023B000F7E7B8F1000F03D0B8F1010F02D100E048
:1023C00000BF04E045F6256020800020E9E700BF5B
:1023D0003F492868884204D045F6C4502080002038
:1023E000DFE700BF00BFFDF773FF009000BFFEF7FF
:1023F000A3FE00BF05F10809B9F808603746B8F137
:10240000000F03D0B8F1010F4FD124E0B7B928462F
:1024100002F046FA2F480088401E2E4908802846C0
:1024200002F00EFA00BFFEF7A1FE00BF0098FDF714
:1024300053FF00BF00BF002020800BE000BFFEF76D
:1024400095FE00BF0098FDF747FF00BF00BF47F2B1
:102450005F10208036E0FEF7FDFE01900AE0D9F81B
:1024600000A0DAF808B059462846019A02F0B4F8FC
:10247000701E86B2002EF2D1284602F011FA1548DD
:102480000088401E13490880284602F0D9F900BF91
:10249000FEF76CFE00BF0098FDF71EFF00BF00BFF7
:1024A00000F098F9002020800CE000BFFEF75EFEEF
:1024B00000BF0098FDF710FF00BF00BF45F6256084
:1024C000208000BF00BF38466BE700006C00002092
:1024D00051554555980000202DE9F04105460C4620
:1024E00000261A480078002805DD4FF46C50208043
:1024F0000020BDE8F08125B945F6C35020800020BA
:10250000F7E713492868884204D045F6C450208074
:102510000020EEE700BF00BFFDF7DAFE064600BF71
:10252000FEF70AFE00BF05F1200001F0E1FD0746BD
:1025300000BFFEF71BFE00BF3046FDF7CDFE00BF1B
:1025400000BF002020803846D3E700006C00002048
:10255000515545552DE9F04F89B0074689469046BB
:102560001E46DDE912544FF0000B71480078002838
:1025700006DD46F2AE102080002009B0BDE8F08FE5
:1025800027B945F6C35020800020F6E726B946F269
:10259000D52020800020F0E7B8F1000F03D0B8F577
:1025A000004F02D100E000BF04E045F62560208026
:1025B0000020E2E700BF5F493868884204D045F652
:1025C000C45020800020D8E70DB10020286000BF53
:1025D00000BFFDF77DFE834600BFFEF7ADFD00BFE7
:1025E00023462A46314607F1200001F0A3FD82462A
:1025F000208850B900BFFEF7B9FD00BF5846FDF76F
:102600006BFE00BF00BF5046B7E708F4004068B15A
:1026100000BFFEF7ABFD00BF5846FDF75DFE00BFF3
:1026200000BF46F2B01020800020A6E742480078A4
:1026300000280DDD00BFFEF799FD00BF5846FDF7ED
:102640004BFE00BF00BF46F663502080002094E799
:102650004B460522394601A801F0A6FE00BFFEF751
:1026600085FD00BF5846FDF737FE00BF00BF00F0F4
:10267000B1F800BF00BFFDF72BFE834600BFFEF799
:102680005BFD00BF2D48006890F8350030B101288F
:1026900015D002282AD0032835D11DE0274800682C
:1026A000D0F860A025480068B0F8640030801DB103
:1026B00022480068806C2860002020802BE04FF0CA
:1026C000000A002030801DB11C480068806C286022
:1026D00046F2A91020801EE04FF0000A0020308052
:1026E00005B1286047F2D920208014E04FF0000A9D
:1026F000002030801DB111480068806C286045F6CC
:10270000C250208007E04FF0000A0020308046F6DB
:102710002E60208000BF00BF00BFFEF727FD00BF76
:102720005846FDF7D9FD00BF00BF504625E7000021
:102730006C00002051554555A800002018010020CC
:102740002DE9FC470546884691461E460A9C25B958
:1027500045F6C3502080BDE8FC87B6F5004F19D080
:1027600009DC9EB1102E12D0B6F5007F10D0B6F560
:10277000047F13D10DE0A6F50040103858B1B0F534
:10278000F87F09D0B0F5007F08D106E000BF00BF98
:1027900000BF00BF00BF00BF00BF03E045F62560DB
:1027A0002080D8E700BF0A492868884203D045F650
:1027B000C4502080CFE7FEF74DFD074633464A461A
:1027C00041462846CDE9007402F08EF800BFC2E70A
:1027D0005155455510B5002420480078002800DDEB
:1027E00010BD1F480078002800DDF9E700BFFDF7A5
:1027F0006FFD044600BF01F0DFFF1A49087008466C
:10280000007800EB4000184951F820001749086093
:102810000846006816490968884205D100BF20466D
:10282000FDF75AFD00BFDBE710480068D0F89400C0
:10283000401C0E490968C1F894000E480068401C0D
:102840000C490860FEF730F900BF2046FDF744FD53
:1028500000BFBFF36F8F00BFC2E700006C00002015
:10286000A80000208F000020181400201C01002068
:1028700018010020D400002070B5044600251A4835
:102880000078002803DD46F66250208070BD1748AE
:102890000078012803D045F689602080F6E71448C7
:1028A0000078FA2803DB45F209202080EEE700BF1C
:1028B00000BFFDF70DFD054600BFFEF73DFC00BF64
:1028C0000B480078401C0A49087002F029F900BF43
:1028D000FEF74CFC00BF2846FDF7FEFC00BF00BF22
:1028E0000020208000BFD1E76C0000207400002091
:1028F000A80000202DE9F04105460C4616460027A9
:1029000000BF00BFFDF7E4FC074600BFFEF714FC64
:1029100000BF012D03D000200E49087002E0012005
:102920000C49087014B10C48046006E00B480068BC
:102930000A21B0FBF1F00849086000BFFEF716FC61
:1029400000BF3846FDF7C8FC00BF00BF0020308044
:10295000BDE8F081B0000020AC0000203037010855
:1029600070B50446002523480078002803DD46F6AC
:102970006550208070BD20480078012803D045F6BE
:1029800089602080F6E71D48007818B946F6645043
:102990002080EFE700BF00BFFDF79AFC054600BFAF
:1029A000FEF7CAFB00BF15480078401E13490870A7
:1029B0000846007800280CDD00BFFEF7D7FB00BFFB
:1029C0002846FDF789FC00BF00BF46F66350208013
:1029D000D0E702F0B3F800BFFEF7C8FB00BF2846FF
:1029E000FDF77AFC00BF00BFFFF7F4FE0020208057
:1029F00000BFBFE76C00002074000020A80000208A
:102A00002DE9F04104460E4617461D464FF00008DA
:102A10001A480078002804DD42F6E1602880BDE80D
:102A2000F0811CB945F6C3502880F8E700BF00BF0D
:102A3000FDF74EFC804600BFFEF77EFB00BF10484E
:102A40002060276200206062666004F1080001F0E7
:102A500050FD204602F01AF90A480088401C094936
:102A6000088000BFFEF782FB00BF4046FDF734FC44
:102A700000BF00BF0020288000BFD0E76C0000200E
:102A800053454D41B80000202DE9FC5F05468846BE
:102A90001446002000904E480078002805DD43F2DF
:102AA000C92020800020BDE8FC9F25B945F6C35011
:102AB00020800020F7E7B8F1000F03D0B8F1010F34
:102AC00002D100E000BF04E045F625602080002030
:102AD000E9E700BF3F492868884204D045F6C45062
:102AE00020800020DFE700BF00BFFDF7F1FB009072
:102AF00000BFFEF721FB00BF05F10809B9F8086027
:102B00003746B8F1000F03D0B8F1010F4FD124E0E0
:102B1000B7B9284602F0D2F82F480088401E2E4947
:102B20000880284602F09EF800BFFEF71FFB00BF9A
:102B30000098FDF7D1FB00BF00BF002020800BE014
:102B400000BFFEF713FB00BF0098FDF7C5FB00BFF9
:102B500000BF47F25F10208036E0FEF77BFB01905C
:102B60000AE0D9F800A0DAF808B059462846019AD8
:102B700001F032FD701E86B2002EF2D1284602F01E
:102B80009DF815480088401E13490880284602F029
:102B900069F800BFFEF7EAFA00BF0098FDF79CFB5A
:102BA00000BF00BFFFF716FE002020800CE000BF32
:102BB000FEF7DCFA00BF0098FDF78EFB00BF00BFF8
:102BC00045F62560208000BF00BF38466BE7000057
:102BD0006C00002053454D41B80000202DE9F0471E
:102BE00088B00646894690461C46109D4FF0000A64
:102BF00068480078002806DD46F2AE1028800020E4
:102C000008B0BDE8F08726B945F6C35028800020FB
:102C1000F6E7B8F1000F03D0B8F5004F02D100E09D
:102C200000BF04E045F6256028800020E8E700BFEB
:102C300059493068884204D045F6C45028800020A5
:102C4000DEE70CB10020206000BF00BFFDF740FBB5
:102C5000824600BFFEF770FA00BF306A98B1306A52
:102C6000401E30620CB1706A2060376A00BFFEF708
:102C70007DFA00BF5046FDF72FFB00BF00BF0020CC
:102C800028803846BCE708F4004070B1376A00BFBE
:102C9000FEF76CFA00BF5046FDF71EFB00BF00BFF9
:102CA00046F2B01028803846AAE73C480078002851
:102CB0000DDD00BFFEF75AFA00BF5046FDF70CFBD2
:102CC00000BF00BF46F663502880002098E74B46BF
:102CD00006223146684601F067FB00BFFEF746FA60
:102CE00000BF5046FDF7F8FA00BF00BFFFF772FDC6
:102CF00000BF00BFFDF7ECFA824600BFFEF71CFAEA
:102D000000BF2748006890F8350030B101280CD08A
:102D100002281AD0032821D110E01CB120480068F5
:102D2000806C20600020288026E01CB11C480068D0
:102D3000806C206046F2A91028801DE00CB10020B4
:102D4000206047F2D920288016E01CB114480068A2
:102D5000806C206045F6C25028800DE046F62E605B
:102D6000288000BFFEF702FA00BF5046FDF7B4FA14
:102D700000BF00BF002043E700BF376A00BFFEF777
:102D8000F5F900BF5046FDF7A7FA00BF00BF38466F
:102D900036E700006C00002053454D41A80000209C
:102DA000180100202DE9F04105460E4614462DB9C4
:102DB00045F6C35020800020BDE8F0814EB1B6F545
:102DC000007F07D0B6F5004F05D0B6F5024F04D10D
:102DD00002E000BF00BF00BF04E045F62560208090
:102DE0000020E9E700BF0A492868884204D045F678
:102DF000C45020800020DFE7FEF72CFA80462346EF
:102E000042463146284601F07DFF07463846D3E763
:102E100053454D4110B5044612480078E8B901F019
:102E2000CBFC1149087008460078104908700E481C
:102E3000007800EB40000E4951F820000D49086071
:102E4000084600680C490860012006490870FDF733
:102E5000EDFD43F69920208002E045F68A6020804F
:102E600010BD0000740000208F0000208E000020A4
:102E7000181400201C010020180100202DE9F04149
:102E800007464FF0000800BF00BFFDF721FA80465B
:102E900000BFFEF751F900BF0020434908804349B5
:102EA0000860434908604349086043490860434952
:102EB00008604349088100BFFEF758F900BF40464B
:102EC000FDF70AFA00BF00BF00BF00BFFDF700FA20
:102ED000804600BFFEF730F900BF3A48046800BFE3
:102EE000FEF744F900BF4046FDF7F6F900BF00BF0A
:102EF00026E000BF00BFFDF7EBF9804600BFFEF7FC
:102F00001BF900BF00207C34E06320642060206354
:102F1000A061A082E0826062A062FEF79BF920625D
:102F20007C3C04F168060020B081D4F8C44000BFA6
:102F3000FEF71CF900BF4046FDF7CEF900BF00BF09
:102F4000002CD6D100BF00BFFDF7C2F9804600BFFC
:102F5000FEF7F2F800BF1C48056800BFFEF706F94F
:102F600000BF4046FDF7B8F900BF00BF16E000BF44
:102F700000BFFDF7ADF9804600BFFEF7DDF800BFEA
:102F800005F120060020B081AD6900BFFEF7EEF824
:102F900000BF4046FDF7A0F900BF00BF002DE6D1FD
:102FA00000203880BDE8F081BE000020D000002065
:102FB000E40000200801002070000020A000002094
:102FC0000C140020D800002094000020F8B504461E
:102FD00000266946364800F08DFDBDF8000018B1A6
:102FE000BDF800002080F8BD6A460021022000F0F4
:102FF00007FEBDF8000018B1BDF800002080F2E720
:1030000000BF00BFFDF764F9064600BFFEF794F865
:1030100000BF00202749086000BFFEF7A7F800BFE7
:103020003046FDF759F900BF00BF0025224800686F
:1030300022490968884205D91F4800681F49096864
:10304000B0FBF1F525B91C4800680A21B0FBF1F589
:103050006A460021284600F0D3FD6946144800F076
:1030600013FABDF8000018B1BDF800002080BAE7DF
:1030700000BF00BFFDF72CF9064600BFFEF75CF865
:1030800000BF00200E4908600A4800680D4908602A
:1030900001200D49087000BFFEF768F800BF3046F8
:1030A000FDF71AF900BF00BF0020208000BF9AE79B
:1030B000E0180020C0000020303701081837010850
:1030C000D0000020C4000020CC00002010B5034830
:1030D000006810B101480068804710BD5C00002006
:1030E0002DE9FF4F87B004469046DDE91BA5DDE9D9
:1030F0001496179F0020039065480078002805DD8E
:1031000047F24A1028800BB0BDE8F08F1CB947F297
:10311000AD102880F7E7B8F1000F03D147F24F1048
:103120002880F0E71EB946F62F602880EBE7594863
:103130000068874203D246F630602880E3E716989D
:10314000B84203D346F631602880DCE7B9F1400F7E
:1031500003D346F273202880D5E7B9F13F0F06D19B
:103160004D48844203D046F273202880CBE72046A6
:1031700002F036F9002028800AF0010090B10AF030
:10318000020078B105960020069008E0002105981D
:1031900001600598001D05900698401C0690069851
:1031A000B842F3D3169806EB80000490CDE9007A7C
:1031B00032464046049B0A9900F03AFB0590C4F859
:1031C00028800A98E0620898206284F8379084F892
:1031D0003890059820600498A0601998A065199807
:1031E00018B92E480068E06501E01998E0651A9862
:1031F000606066622764A4F844A04FF0000B08E00A
:10320000002104F1800040F82B100BF1010000F0C8
:10321000FF0BBBF1000FF3D004F16800189900F028
:10322000BDFF204600F040F800BF00BFFDF750F89A
:10323000039000BFFDF780FF00BF94F8370001F056
:10324000DBFA204601F0FEFB204602F07FF814482E
:103250000088401C1249088012480078012809D0D3
:1032600000BFFDF783FF00BF0398FDF735F800BFEF
:1032700000BF48E700BFFDF779FF00BF0398FDF7E7
:103280002BF800BF00BFFFF7A5FA00BF3BE7000027
:103290006C0000202C37010840130020AC000020F7
:1032A000DC0000207400002010B5044603480068CC
:1032B00018B1204601490968884710BD4C0000201C
:1032C0002DE9F04104460E464FF0000864480078AE
:1032D000002804DD47F24E103080BDE8F0816148DF
:1032E000844203D147F24C103080F6E79CB900BF0E
:1032F00000BFFCF7EDFF804600BFFDF71DFF00BFDC
:103300005948046800BFFDF731FF00BF4046FCF795
:10331000E3FF00BF00BF00BF00BFFCF7D9FF80463E
:1033200000BFFDF709FF00BF94F83600082860D2FF
:10333000DFE800F004090E10080A0F11204601F022
:10334000C1FB63E062E000BF204602F081FB5DE06C
:1033500000BF00BF00BF94F8340008283BD2DFE86C
:1033600000F0040705080E090A0600BF00BF33E09D
:1033700000BF00BF00BF204601F0F3F82CE0206B37
:10338000C068456A15F8377F204601F0EAF82878CA
:103390006978373D884212D095F8370094F8371095
:1033A00088420CD1284600F0CFFF074695F8380038
:1033B000B84202DA95F8380000E0384607460020A7
:1033C00084F8340095F83700B84203D039462846CF
:1033D00001F046FF00E000BF00BF94F8360003286C
:1033E00003D094F83600072802D1204602F030FBC3
:1033F0000CE000BFFDF7BAFE00BF4046FCF76CFFD3
:1034000000BF00BF46F62D60308066E700BFE06B6E
:1034100010B1204600F068FF04F1680000F068FE7B
:10342000204600F025F8204601F0A8FF0F4800884C
:10343000401E0E490880204601F0D2FFFF2084F88C
:10344000360000BFFDF792FE00BF4046FCF744FF88
:1034500000BF00BF00203080FFF7BCF900BF3CE791
:103460006C0000204013002018010020DC00002028
:1034700010B504460348006818B1204601490968A0
:10348000884710BD5000002070B504460D46002648
:1034900018480078002803DD47F25510288070BDD9
:1034A00000BF00BFFCF714FF064600BFFDF744FE57
:1034B00000BF1CB11048006884420CD100BFFDF76A
:1034C00055FE00BF3046FCF707FF00BF00BF47F2C4
:1034D00057102880E3E700BFFDF748FE00BF3046E5
:1034E000FCF7FAFE00BF00BF2946204601F0E0FFCE
:1034F00000BFD4E76C0000201801002010B504467E
:103500000348006818B1204601490968884710BD82
:10351000540000202DE9F04780460E4614461D4613
:103520004FF0000976480078002805DD46F2AE101D
:1035300028800020BDE8F0871EB1B6F5004F02D10B
:1035400000E000BF04E045F6256028800020F1E798
:1035500000BF0CB10020206000BF00BFFCF7B8FE28
:10356000814600BFFDF7E8FD00BF66480068C06CFB
:10357000B8B364480068C06C401E62490968C864FA
:1035800060480068C76C1CB15E480068806C2060B1
:10359000FDF760FE5B490968896C401A5949096862
:1035A000C1F8A80057480068D0F8AC005549096830
:1035B000D1F8A810884207D252480068D0F8A80075
:1035C00050490968C1F8AC0000BFFDF7CFFD00BF4E
:1035D0004846FCF781FE00BF00BF00202880384627
:1035E000A8E7FFE706F4004068B100BFFDF7BEFDA5
:1035F00000BF4846FCF770FE00BF00BF46F2B010A7
:103600002880002096E74048007800280DDD00BFA4
:10361000FDF7ACFD00BF4846FCF75EFE00BF00BFF3
:1036200046F663502880002084E7434607220021A5
:10363000084600F0B9FE00BFFDF798FD00BF484600
:10364000FCF74AFE00BF00BFFFF7C4F800BF00BF91
:10365000FCF73EFE814600BFFDF76EFD00BF294826
:10366000006890F8350020B1012826D0032834D115
:103670002CE0FCB123480068806C2060FDF7EAFD77
:1036800020490968896C401A1E490968C1F8A800D8
:103690001C480068D0F8AC001A490968D1F8A81095
:1036A000884207D217480068D0F8A8001549096871
:1036B000C1F8AC000020288013E01CB1114800685C
:1036C000806C206046F2A91028800AE00CB100202E
:1036D000206047F2D920288003E046F62E6028803B
:1036E00000BF00BF07480068C76C00BFFDF73EFD84
:1036F00000BF4846FCF7F0FD00BF00BF384619E7A1
:103700006C00002018010020A80000202DE9F041E5
:1037100006460D4614461DB1B5F5004F02D100E036
:1037200000BF05E045F6256020800020BDE8F0815F
:1037300000BFFDF78FFD80462346424629463046AE
:1037400001F050FF07463846F0E700002DE9F0474A
:1037500005460E4617461C464FF0000A32480078D0
:10376000002804DD47F259102080BDE8F0871EB91B
:1037700046F2D5202080F8E71FB946F2D5202080F8
:10378000F3E700BF00BFFCF7A3FD824600BFFDF7D3
:10379000D3FC00BF0DB925480568286878B900BF7B
:1037A000FDF7E4FC00BF5046FCF796FD00BF00BFEC
:1037B00000203060386047F252102080D5E795F83D
:1037C000440000F0010078B900BFFDF7CFFC00BF56
:1037D0005046FCF781FD00BF00BF0020306038601C
:1037E00047F254102080C0E700BFFDF7BFFC00BFC8
:1037F0005046FCF771FD00BF00BF4FF00008D5F840
:10380000249003E009F1040908F10108D9F8000047
:103810000028F7D0C6F80080286CA0EB08003860BC
:103820000020208000BFA0E76C00002018010020CD
:10383000F0B50446DDE9055602EB850020F00700EF
:103840004FF0807C071F3846C7F800C0071F384676
:103850003C60DFF834C2071F3846C7F800C04FF09D
:10386000123C071F3846C7F800C04FF0033C071F43
:103870003846C7F800C04FF0023C071F3846C7F86B
:1038800000C0071F38463B60071F384639604FF0BD
:10389000113C071F3846C7F800C04FF0103C071F07
:1038A0003846C7F800C04FF0093C071F3846C7F834
:1038B00000C04FF0083C071F3846C7F800C04FF063
:1038C000073C071F3846C7F800C04FF0063C071FEB
:1038D0003846C7F800C04FF0053C071F3846C7F808
:1038E00000C04FF0043C071F3846C7F800C006F080
:1038F0000407002F7ED04FF0007C071F3846C7F822
:1039000000C0DFF888C1071F3846C7F800C0DFF8DD
:1039100080C1071F3846C7F800C0DFF878C1071F0D
:103920003846C7F800C0DFF870C1071F3846C7F82F
:1039300000C0DFF868C1071F3846C7F800C0DFF8CD
:1039400060C1071F3846C7F800C0DFF858C1071F1D
:103950003846C7F800C0DFF850C1071F3846C7F81F
:1039600000C0DFF848C1071F3846C7F800C0DFF8BD
:1039700040C1071F3846C7F800C0DFF838C1071F2D
:103980003846C7F800C0DFF830C1071F3846C7F80F
:1039900000C0DFF828C1071F3846C7F800C0DFF8AD
:1039A00020C1071F3846C7F800C0DFF818C1071F3D
:1039B0003846C7F800C04FF0834C071F3846C7F899
:1039C00000C0DFF804C1071F3846C7F800C0DFF8A1
:1039D000FCC0071F3846C7F800C0DFF8F4C0071F57
:1039E0003846C7F800C0DFF8ECC0071F3846C7F8F4
:1039F00000C000E047E0DFF8E0C0071F3846C7F826
:103A000000C0DFF8D8C0071F3846C7F800C0DFF88D
:103A1000D0C0071F3846C7F800C04FF0824C071FC0
:103A20003846C7F800C0DFF8BCC0071F3846C7F8E3
:103A300000C0DFF8B4C0071F3846C7F800C0DFF881
:103A4000ACC0071F3846C7F800C04FF0814C071FB5
:103A50003846C7F800C0DFF898C0071F3846C7F8D7
:103A600000C04FF0804C071F3846C7F800C04FF029
:103A70007E5C071F3846C7F800C04FF0000C071FD8
:103A80003846C7F800C0F0BDCD5500080000F84129
:103A90000000F0410000E8410000E0410000D84192
:103AA0000000D0410000C8410000C0410000B84102
:103AB0000000B0410000A8410000A0410000984172
:103AC000000090410000884100007041000060410A
:103AD0000000504100004041000030410000204102
:103AE000000010410000E0400000C0400000A04085
:103AF0000000404070B505460C460A480078002892
:103B000003DD47F25D10208070BD0748854203D178
:103B100047F25B102080F7E72146284601F05AFE65
:103B200000BFF1E76C0000204013002070B5304862
:103B3000006890F8440000F0040020B12C490968A6
:103B40000868FCF75DFF2B48006890F8440000F01F
:103B5000040020B1274909680868FCF75EFF264881
:103B6000006810B1244800688047FDF773FB0446E5
:103B70001F4800681F490968884215D01C48006822
:103B8000D0F89C00201A1A490968C1F89800184812
:103B90000068D0F8A00016490968D1F898100844C8
:103BA00013490968C1F8A00012480068C0F89C4099
:103BB000FDF796FA05460E480068D0F8B800A8420E
:103BC00003D20B480068C0F8B85009480068D0F824
:103BD000BC000A490968884205D2084800680449BF
:103BE0000968C1F8BC0000200449086070BD0000ED
:103BF000180100201C01002060000020A40000200B
:103C00002DE9F04105460E46144600272A48007863
:103C1000002804DD47F275202080BDE8F0812748A8
:103C20000078002803DD46F663502080F5E736B1C2
:103C3000022E05D0042E0AD0082E09D101E000BFC3
:103C400000BF1DB947F27E202080E6E704E003E0D4
:103C500045F625602080E0E700BF00BF00BFFCF70D
:103C600037FB074600BFFDF767FA00BF2346324621
:103C700029461348006801F08DFE208848B100BF36
:103C8000FDF774FA00BF3846FCF726FB00BF00BF03
:103C9000C3E70B48006800F015FF00BFFDF766FAA8
:103CA00000BF3846FCF718FB00BF00BFFEF792FDCF
:103CB0000020208000BFB0E76C000020A80000209A
:103CC0001801002070B50446002600BF00BFFCF7B5
:103CD000FFFA064600BFFDF72FFA00BF0748056848
:103CE00000BFFDF743FA00BF3046FCF7F5FA00BF0E
:103CF00000BF00202080284670BD0000E0000020AA
:103D000008B500F02BF86A4600210E48FFF7FEFCCC
:103D10000D49097801EB41010C4A02EB810000F0EA
:103D20002BFF0B480068401E0949086008460068E0
:103D300038B90848006808606A4600210648FFF75D
:103D4000E5FC08BDE41700208E00002018140020B8
:103D50001401002010010020E018002010B50348D5
:103D6000006810B101480068804710BD6400002061
:103D700010B5002400BF00BFFCF7AAFA044600BF3C
:103D8000FDF7DAF900BF09480078401C07490870C0
:103D900000BFFDF7EBF900BF2046FCF79DFA00BF1E
:103DA00000BFFFF7ADFFFEF701F810BD6C0000206B
:103DB00001464A1E4FF0E0235A61084A106820F07D
:103DC0007F4000BF10601A46126942F005021A6176
:103DD0001A46126942F002021A61704720ED00E0B3
:103DE000244A2549254A264A2649274A2748284A57
:103DF000284A294A294A2A482A482B4A2B482C4A29
:103E00002C482D4A2D482E482E482F482F4A304AFC
:103E1000304A3148314A324A3248334833483448CC
:103E2000344835483548364A364A374A374A38489A
:103E300038483948394A3A4A3A4A3B483B483C486C
:103E40003C493D483D4A3E4A3E4A3F4A3F4A404A35
:103E5000404A4148414A424A42484348434A444A08
:103E60004448454A454A4648464800BF00BF00BF4F
:103E70007047000064370108CC3801086537010835
:103E800066370108683701086C3701087037010888
:103E90006D37010898370108993701089A370108EA
:103EA0009C3701089E370108A2370108A437010892
:103EB000C4370108C6370108C8370108CA370108E6
:103EC000CC370108CE370108D03701080038010887
:103ED00001380108023801080438010806380108D1
:103EE00007380108083801080A3801080C380108A9
:103EF0000E3801081038010812380108143801087A
:103F00004438010845380108463801084738010897
:103F1000483801084A3801084C380108743801084B
:103F200075380108763801087738010878380108B3
:103F30007A3801087C380108803801088138010886
:103F4000823801088338010884380108853801085F
:103F50008638010887380108883801088A3801083E
:103F60008B3801088C3801088E3801089038010818
:103F70009138010894380108C4380108C53801088F
:103F8000C6380108C83801080021034A1160034AF5
:103F90001180018070470000780000207C00002024
:103FA00000241DE000BF00BFFCF792F9044600BFEB
:103FB000FDF7C2F800BF0B480068401C09490860C3
:103FC00009480068401C0849086000BFFDF7CEF8AA
:103FD00000BF2046FCF780F900BF00BFFDF708FED8
:103FE000E0E7000068000020C000002010B58AB0A3
:103FF000044600200E4908600B2000210591CDE900
:104000000704069108460B4909680B4A12680B4BD6
:104010001B68CDE90132CDE903103F200023084A97
:1040200008A100900C48FFF75BF80AB010BD000033
:1040300068000020D8360108D4360108D0360108BF
:10404000A13F000875432F4F532D4949492049642A
:104050006C65205461736B00401300200021034AFB
:104060001160034A11800180704700008000002029
:104070008400002070B501461A4D2D681DB945F227
:104080001E750D8070BD184D2D881DB945F21D752A
:104090000D80F7E7134D28682A681032124D2D88DD
:1040A0006D1EACB2002308E002600025456005816A
:1040B000C560103010325D1CABB2A342F4DB0025AA
:1040C000056045600581C560064D2D68074E356069
:1040D000054D2D88B5800025F58035810D8000BF08
:1040E000D0E7000010370108083701080C14002041
:1040F00010B5014648894B89002B17DD0A680C4B27
:104100001B6813600A4C4B6823602346DB884C898C
:104110001B1B074CE38023469B884C892344044C9B
:10412000A38000234B818B810B604B6010BD00008E
:104130000C140020F0B504460D46608940B90020FB
:10414000288002B1106046F2925018800020F0BD25
:1041500061684E68088928800AB1C86810600868DC
:104160006060606818B900202060608102E06089AA
:10417000401E608108480068086007480160808828
:10418000401C054FB8803846C088401EF88000208B
:1041900018803046DBE700000C140020018100226B
:1041A0004281828102604260704700002DE9F04147
:1041B0000D46DDE90674B0F80AC0B0F80880C445C1
:1041C00005DB46F2935CA4F800C0BDE8F081DFF89F
:1041D000DCC0BCF804C0BCF1000F04D145F21D7C6A
:1041E000A4F800C0F1E7DFF8C4C0DCF80010DFF885
:1041F000BC80D1F800C0C8F800C0C446BCF804C0F8
:10420000ACF1010CA8F804C0C446BCF806C00CF11F
:10421000010CA8F806C0C446BCF808C0B8F806806F
:10422000C44507DADFF884C0BCF806C0DFF87C803C
:10423000A8F808C0B0F80AC0BCF1000F0AD10160AC
:1042400041604FF0010CA0F80AC04FF0000CC1F81B
:1042500000C017E003F0100CBCF1000F07D1066896
:10426000316001604FF0000CC1F800C004E0D0F8EC
:1042700004C0C1F800C04160B0F80AC00CF1010CE4
:10428000A0F80AC0B0F80CC0B0F80A80C44503DA40
:10429000B0F80AC0A0F80CC04D600A81CF604FF0A2
:1042A000000CA4F800C000BF8FE700000C14002031
:1042B00009A1C161002141610849096811B90021C2
:1042C000816105E00549096881610449096848611F
:1042D00002490860704700002000000088000020AC
:1042E000C26B0A62C16370472DE9F8430546EC6B67
:1042F00026E0D4F82090FCF7ADFF0646E6622146A2
:10430000284600F037F804F10808B8F8080020B98A
:10431000002084F82800606211E0D8F80000876867
:104320006562012084F8280021463846FFF7D8FF4F
:1043300000231A4639462046009600F0BCF94C4648
:10434000002CD6D1BDE8F88330B504463F2004F1F7
:104350003C010BE00D68AB682BB19D6895F83720E8
:10436000824200DA10460D6805F120010D68002D2B
:10437000F0D130BD024602F13C0002E0036803F1D7
:10438000200003688B42F9D103681B6A0360704701
:104390000021034A1160034A118001807047000028
:1043A000880000208C0000202DE9F04105460C46D5
:1043B00016461F461548006880F8346000201349EF
:1043C000096881F8350039461048006800F032FF6E
:1043D0006CB104F10808EC60012229460B48006822
:1043E00000F016F82946404600F088F807E0002063
:1043F00006490968A1F846000449096808630348AA
:104400000168204600F018F8BDE8F081180100208E
:1044100010B5A0F84620016300230AE000244C6098
:104420000C600C614C610C83CC61886020315C1C99
:10443000A3B29342F2DB10BD30B548B14568C1F874
:10444000C85000F10804226893681D6AC56113E032
:1044500091F83450022D02D0072D08D103E007A5B2
:10446000C1F8C85007E007A5C1F8C85003E008A587
:10447000C1F8C85000BF00BF30BD00005461736B6D
:10448000205100005461736B2053656D00000000E3
:104490002000000030B507A5C1F8C85000F108049D
:1044A00022681AB193681D6AC56101E001A5C56162
:1044B00030BD0000200000002DE9F0410446256BCE
:1044C000B4F8467011E0D5F80C8008F10806308980
:1044D000012807D92946304600F05DF829463046C4
:1044E00000F00CF82035781E87B2002FEBD1BDE824
:1044F000F08100210160416001817047F0B58E6854
:1045000096F8375007893FB90127078100274F6088
:104510000F600160416023E007897F1C078102680A
:1045200006E0946894F83770AF4200DD02E052680C
:10453000002AF6D100BF32B900274F6043680B60F4
:10454000596041600CE017682FB9116000270F60B7
:104550004A60016004E013680B604A6059601160B2
:10456000F0BD2DE9F0410446256BB4F846600AE041
:10457000D5F80C8008F108072946384600F00BF8FA
:104580002035701E86B2002EF2DC0020A4F8460012
:104590002063BDE8F08110B50489012C03D100240B
:1045A0000460446011E00C6824B94A680024146077
:1045B00002600AE04C6824B90B6800245C60436028
:1045C00003E00B684A685A6013600489641E048122
:1045D00000244C600C6010BD70B506460C461546B4
:1045E00094F83600082850D2DFE800F004050809E6
:1045F00006072D2E00BF00BF00BF47E000BF94F8A4
:104600003400032804D12A462146304600F040F801
:1046100000202066A4F86400A5642046FFF7A1FFEF
:1046200094F83600032802D1204601F011FA204602
:1046300000F0D2F900203434A07002206070002015
:1046400004F8340922E000BF94F83400032804D1B0
:104650002A462146304600F01BF800202066A4F8C8
:104660006400A5642046FFF77CFF94F83600072815
:1046700002D1204601F0ECF904203434A07002206D
:104680006070002004F8340900E000BF00BF70BD76
:1046900030B50346086BB1F8464008E0C5689D4256
:1046A00002D10361C26104E02030651EACB2002C6F
:1046B000F4DC00BF30BD2DE9F84306460C46174632
:1046C0009846089D94F8360008285BD2DFE800F091
:1046D000040508090607323300BF00BF00BF52E0DF
:1046E00000BF94F83400032807D143463A462146D8
:1046F0003046009500F04AF803E02766A4F864808D
:10470000A56436B12046FFF72CFF21463046FFF75F
:10471000C1FE94F83600032802D1204601F098F932
:10472000204600F059F900203434A070607004F87D
:10473000340928E000BF94F83400032807D1434629
:104740003A4621463046009500F020F803E02766FF
:10475000A4F86480A56436B12046FFF702FF214625
:104760003046FFF797FE94F83600072802D120461E
:1047700001F06EF904203434A0700020607004F859
:10478000340900E000BF00BFBDE8F883F0B504467F
:10479000059E086BB1F846500AE0C768A74204D1ED
:1047A000046142610383C66104E020306F1EBDB224
:1047B000002DF2DC00BFF0BD70B50025074C03E012
:1047C00005F12000C5B2241D20680028F8D020681B
:1047D000FBF789FD2844C5B2284670BD440000207F
:1047E000002004E00021034A42F82010401C022867
:1047F000F8D370474400002030B5420900F01F0391
:104800000121C3F11F04A140034C54F822400C4382
:10481000014D45F8224030BD4400002030B542092A
:1048200000F01F030121C3F11F04A140034C54F801
:1048300022408C43014D45F8224030BD4400002009
:1048400010B5044604F12000FFF752FC0648206032
:1048500006A06060002104F12000FFF79FFC04F136
:104860000800FFF746FE10BD4E4F4E453F51000079
:1048700009A1C161002141610849096811B90021FC
:10488000816105E005490968816104490968486159
:1048900002490860704700002000000094000020DA
:1048A000426981693AB9094B196009B100234B612A
:1048B0000023836109E019B900239361436104E097
:1048C00091614A6100238361436170479400002035
:1048D0000021034A1160034A1180018070470000E3
:1048E00094000020980000202DE9F04F85B0074685
:1048F0008A4693461C460020029000BF00BFFBF78B
:10490000E7FC029000BFFCF717FC00BF07F10806A8
:104910003089F0B904F0100010B94FF0000801E040
:104920004FF01008DDE90E0143465A46CDE900017B
:10493000514607F12000FFF739FC00BFFCF716FCD9
:1049400000BF0298FBF7C8FC00BF00BF05B0BDE880
:10495000F08F04F4007008B1358900E00125D6F825
:10496000009011E0D9F808000390D9F804000490F1
:104970000E985B465246009038460399FFF79BFE1F
:10498000DDF81090681E85B2002DEBD100BFFCF75A
:10499000EDFB00BF0298FBF79FFC00BF00BF04F4D3
:1049A000004008B9FDF716FF00210F98018000BFF5
:1049B000CCE7000000210AE001EB4102054B03EBCC
:1049C000820000220281026042604A1CD1B240296A
:1049D000F2D370471814002010B5044694F837003D
:1049E000FFF70AFF94F8370005490978884203D198
:1049F000204600F027F802E0204600F003F810BD42
:104A00008E00002010B590F8373003EB43030C4CB8
:104A100004EB83010B893BB901230B810023C360A5
:104A200003610860486009E00B895B1C0B810B681F
:104A3000C360002303610A681061086010BD0000B4
:104A40001814002010B590F8373003EB43030B4CDB
:104A500004EB83010B893BB901230B810023C36065
:104A600003610860486008E00B895B1C0B81002330
:104A7000C3604A680261D060486010BD181400200D
:104A800010B501460C8924B1012C03D0022C0CD1A5
:104A900001E000BF14E008684A6802610024C460B5
:104AA0001461D0600A6048600AE008684A68C36818
:104AB00000241C61C4600261D0600B60486000BFCC
:104AC00000BF10BD2DE9F041054695F8370000EB19
:104AD0004000124901EB80042F69EE6887B946B99E
:104AE000002020812060606095F83700FFF796FE77
:104AF0000EE02089401E208100203061266007E002
:104B00002089401E2081FE600EB9676000E0376199
:104B100000202861E860BDE8F08100001814002042
:104B200010B504480078012803D1FCF793FB024933
:104B3000086010BDA80000209C00002010B50A48A5
:104B4000007880B9FCF786FB08490968441A0848D0
:104B50000068A04201D20648046006480068A042EE
:104B600001D20448046010BDA80000209C00002071
:104B7000A0000020A400002070B50546002635489E
:104B80000078012800D070BD00BF00BFFBF7A0FB7C
:104B9000064600BFFCF7D0FA00BF2C684CB900BF36
:104BA000FCF7E4FA00BF3046FBF796FB00BF00BFFE
:104BB000E9E72948844209D100BFFCF7D7FA00BFD2
:104BC0003046FBF789FB00BF00BFDCE7E06D10B1AA
:104BD000E06D401EE065E06D48B100BFFCF7C6FA2D
:104BE00000BF3046FBF778FB00BF00BFCBE728894A
:104BF000022809DA00BFFCF7B9FA00BF3046FBF71C
:104C00006BFB00BF00BFBEE714480078002809DD39
:104C100000BFFCF7ABFA00BF3046FBF75DFB00BFFF
:104C200000BFB0E72846FFF72BFF2C68A06D18B92E
:104C30000B480068E06501E0A06DE06500BFFCF78F
:104C400095FA00BF3046FBF747FB00BF00BF00BF2F
:104C500099E70000B000002040130020A8000020C9
:104C6000AC00002010B504460548206000202062FA
:104C7000606204A0606004F10800FFF73AFC10BD18
:104C80004E4F4E453F53454D0000000009A1C16104
:104C9000002141610849096811B90021816105E0DD
:104CA0000549096881610449096848610249086049
:104CB0007047000020000000B400002042698169B4
:104CC0003AB9094B196009B100234B610023836194
:104CD00009E019B900239361436104E091614A61DD
:104CE0000023836143617047B40000200021034A20
:104CF0001160034A1180018070470000B400002059
:104D0000B80000202DE9FF5F0446884691461D4605
:104D10000020019000BF00BFFBF7DAFA019000BF4E
:104D2000FCF70AFA00BF04F108073889002857D1B8
:104D30000420012804D0022816D004283AD127E004
:104D4000206AFF280FD100BFFCF710FA00BF0198BE
:104D5000FBF7C2FA00BF00BF46F6C550288000200E
:104D600004B0BDE8F09F26E04FF6FF71206A88424C
:104D70000DD100BFFCF7FAF900BF0198FBF7ACFAC0
:104D800000BF00BF46F6C55028800020E8E712E0CB
:104D9000206A401C68B900BFFCF7E8F900BF019821
:104DA000FBF79AFA00BF00BF46F6C55028800020E6
:104DB000D6E700E000BF00BF206A401C2062D4F8A4
:104DC00020A0C4F8249000BFFCF7D0F900BF0198E0
:104DD000FBF782FA00BF00BF002028805046BFE7E3
:104DE00008F4007008B13E8900E00126D7F800B051
:104DF00011E0DBF808000290DBF8040003900023C8
:104E00001A46CDF8009020460299FFF754FCDDF8D1
:104E10000CB0701E86B2002EEBD1D4F820A000BFDB
:104E2000FCF7A4F900BF0198FBF756FA00BF00BFDA
:104E300008F4004008B9FDF7CDFC0020288050465A
:104E40008EE7000086B00020009006E0B6490968B1
:104E5000480001AA0021FEF7D3FEB44800780128DB
:104E6000F4D101A8FEF70AF80027B1480068AE495E
:104E70000968884205D9AE480068AB490968B0FBAB
:104E8000F1F727B9AA4800680A21B0FBF1F749E118
:104E9000FCF7E0F98246FCF739F9A649086000BF43
:104EA00000BFFBF715FA009000BFFCF745F900BF03
:104EB000A1480068A149086000209F49086000BF20
:104EC000FCF754F900BF0098FBF706FA00BF00BFDB
:104ED0009B48006899490968884248D99848006801
:104EE0009849884205D242F2107003900120029046
:104EF00023E0934800689449884205D24FF47A70C1
:104F000003900A20029018E08D4800688F4988427B
:104F100003D26420039002900FE0894800688C4916
:104F2000884205D20A2003904FF47A70029004E080
:104F30000120039042F210700290814801680298AB
:104F4000B1FBF0F97D49039809684843B0FBF9F0DB
:104F500042F21071081A7F4908807F48008809884A
:104F6000884207DA7B4800887B49088002E00020FD
:104F700078490880FEF7AAF8002500BF00BFFBF7BC
:104F8000A7F9009000BFFCF7D7F800BF734804688A
:104F900000BFFCF7EBF800BF0098FBF79DF900BFDE
:104FA00000BF2EE000BF00BFFBF792F9009000BFEA
:104FB000FCF7C2F800BF54F8A00F6060002044F86E
:104FC000A00900BFFCF7D2F800BF0098FBF784F9F6
:104FD00000BF00BFD4F8A400054400BF00BFFBF72A
:104FE00077F9009000BFFCF7A7F800BFD4F8C440E1
:104FF00000BFFCF7BBF800BF0098FBF76DF900BFDE
:1050000000BF002CCED145B34E48854205D242F2B6
:10501000107005904FF0010B1BE04B48854205D204
:105020004FF47A7005904FF00A0B12E04748854222
:1050300003D26420059083460BE04548854204D2A4
:105040000A2005904FF47A7B03E00120059042F29C
:10505000107BB5FBFBF0049003E0002005900120DD
:10506000049000BF00BFFBF733F9009000BFFCF7CE
:1050700063F800BF3948046800BFFCF777F800BF49
:105080000098FBF729F900BF00BF2FE0D4F8A40077
:10509000059948430499B0FBF1F086B242F21070D2
:1050A000864200D90646A4F89060B4F89200B04257
:1050B00001DAA4F8926001AB04F1B002111D2046A0
:1050C000FEF744FB00BF00BFFBF702F9009000BFF2
:1050D000FCF732F800BFD4F8C44000BFFCF746F834
:1050E00000BF0098FBF7F8F800BF00BF002CCDD13F
:1050F0001B480078012805D100201949087001A833
:10510000FDF7BCFEFCF7A6F8A0EB0A0815480068FE
:10511000404502D21348C0F8008001AA0021384659
:10512000FEF76EFDB4E6000018370108CC00002041
:105130003037010870000020C0000020C8000020A7
:10514000C4000020801A060000093D00005A6202D7
:105150000084D717BC000020BE000020D80000202B
:10516000BA000020D000002010B58AB0044600200C
:105170001F4908601F4908601F4908601F490870DF
:105180001F4908701F48006820B946F62B60208030
:105190000AB010BD1C4800681C490968884203D247
:1051A00046F62C602080F3E7194800783F2803D3A7
:1051B00046F62A602080EBE7032000210591CDE927
:1051C00007040691084610490968124A12680D4BF7
:1051D0001B68CDE90132CDE903100D4800780023AA
:1051E0000D4A0EA100901248FDF77AFF00BFCFE7ED
:1051F000C0000020C8000020C4000020CC00002017
:10520000BA0000201C370108243701082C37010898
:105210001437010820370108454E000875432F4F09
:10522000532D4949492053746174205461736B00B4
:105230001817002070B504460D4645B12A46214690
:10524000064800F063FB032084F8360002E00220E9
:1052500084F836002046FFF735FC70BDF0000020D2
:105260002DE9F04104460D4600BF002694F8377042
:1052700094F8360008285FD2DFE800F004191E1FFA
:105280001A1B20212046FFF71DFC84F8375094F8A4
:105290003700FFF7B1FA2C480068844203D120465A
:1052A000FFF7B0FB02E02046FFF7CCFB46E000BF73
:1052B00000BF84F8375041E000BF00BF00BF84F852
:1052C000375094F83400082831D2DFE800F0300479
:1052D00031050B06073200BF00BF00BF2046FFF7B5
:1052E000EBF827E02046FFF7E7F8206BC068466A36
:1052F000AF4205DD96F83700A84217DC002615E01E
:1053000096F83700B84211D13046FFF71DF8054630
:1053100096F83800A84202DA96F8380000E02846ED
:10532000054696F83700A84200D1002602E000BFEB
:1053300000BF00BF00BF01E0BDE8F08100BF344600
:10534000002C92D100BFF7E7180100200021C0F81F
:10535000C0100949096819B90021C0F8C41007E054
:1053600005490968C0F8C41003490968C1F8C000BC
:105370000149086070470000D8000020D0F8C02024
:10538000D0F8C4104AB90D4B196011B10023C1F80F
:10539000C0300023C0F8C4300FE029B90023C2F8A0
:1053A000C430C0F8C03008E0C2F8C410C1F8C02052
:1053B0000023C0F8C430C0F8C0307047D8000020C7
:1053C0000021044A1160044A1180044A11600180DE
:1053D00070470000D8000020DC000020D40000202E
:1053E00070B5044600202060A0606060E06020612D
:1053F0006061A061E0612BA0206200206062A06279
:10540000E0622063A4F84600A0642066A4F864006B
:10541000002104F16800FEF7C1FE002044F8780F77
:105420006060E060A0822061783C002506E00021F9
:1054300004F1800040F82510681CC5B2002DF6D09C
:1054400000203434A0616067A067E06084F85A00EF
:10545000C4F88000E0672082E06120626062A062A0
:10546000A4F85C00A4F85E0020666066FBF7F2FE1C
:105470000646A6660020E066C4F88400C4F88800EA
:1054800020706070A0704020E07020710020A0604B
:10549000C4F88C00C4F8900004A0C4F89400343C14
:1054A00070BD00003F5461736B00000020000000DD
:1054B00070B504460D46002600BF00BFFAF708FF8E
:1054C000064600BFFBF738FE00BF0020288094F896
:1054D0003600082868D2DFE800F004050607142B20
:1054E0003F5300BF00BF00BF00BFFBF73FFE00BF40
:1054F0003046FAF7F1FE00BF00BF47F25310288094
:105500005FE014F88E0F401E207014F88E0928B941
:10551000002084F836002046FFF75EFA00BFFBF754
:1055200025FE00BF3046FAF7D7FE00BF00BF48E0B7
:1055300014F88E0F401E207014F88E0910B9012047
:1055400084F8360000BFFBF711FE00BF3046FAF7C3
:10555000C3FE00BF00BF34E014F88E0F401E207061
:1055600014F88E0910B9022084F8360000BFFBF74A
:10557000FDFD00BF3046FAF7AFFE00BF00BF20E0E0
:1055800014F88E0F401E207014F88E0910B90320F5
:1055900084F8360000BFFBF7E9FD00BF3046FAF79C
:1055A0009BFE00BF00BF0CE000BFFBF7DFFD00BFAC
:1055B0003046FAF791FE00BF00BF46F62D60288006
:1055C00070BD00BFFDF706F900BFF9E708B5044854
:1055D0000068FDF793FF69460020FDF771FE08BDE6
:1055E000180100202DE9F8430446884617461D4659
:1055F0004FF0000900BF00BFFAF76AFE814600BF06
:10560000FBF79AFD00BF0CB971480468A76400203D
:10561000288094F83600082878D2DFE800F00405E6
:10562000585906075A5B00BF00BF00BF042001287D
:1056300004D0022815D0042839D126E0E06CFF28D8
:105640000ED100BFFBF792FD00BF4846FAF744FEBB
:1056500000BF00BF46F6C55028800020BDE8F88393
:1056600026E04FF6FF71E06C88420DD100BFFBF7DA
:105670007DFD00BF4846FAF72FFE00BF00BF46F68B
:10568000C55028800020E9E712E0E06C401C68B9B2
:1056900000BFFBF76BFD00BF4846FAF71DFE00BFD9
:1056A00000BF46F6C55028800020D7E700E000BFC5
:1056B00000BFE06C401CE064E66C00BFFBF756FDE9
:1056C00000BF4846FAF708FE00BF00BF7DE000BFFC
:1056D00000BF00BF94F83400072818D100231A46F1
:1056E000214618460097FEF7E6FFE66C00BFFBF781
:1056F0003DFD00BF4846FAF7EFFD00BF00BF08F4CC
:105700000040002852D1FDF765F84FE04FE004203B
:10571000012804D0022814D0042838D125E0E06CF8
:10572000FF280DD100BFFBF721FD00BF4846FAF767
:10573000D3FD00BF00BF46F6C550288000208DE78E
:1057400026E04FF6FF71E06C88420DD100BFFBF7F9
:105750000DFD00BF4846FAF7BFFD00BF00BF46F68B
:10576000C5502880002079E712E0E06C401C68B941
:1057700000BFFBF7FBFC00BF4846FAF7ADFD00BFDA
:1057800000BF46F6C5502880002067E700E000BF54
:1057900000BFE06C401CE064E66C00BFFBF7E6FC79
:1057A00000BF4846FAF798FD00BF00BF0DE000BFFC
:1057B000FBF7DCFC00BF4846FAF78EFD00BF00BFD8
:1057C00046F62D602880002600BF00BF304645E722
:1057D0001801002070B504460D46002600BF00BF2A
:1057E000FAF776FD064600BFFBF7A6FC00BF0CB932
:1057F0004448046843480068844210D14248007815
:1058000000280CDD00BFFBF7B1FC00BF3046FAF703
:1058100063FD00BF00BF46F66350288070BD0020C6
:10582000288094F8360008285AD2DFE800F00417E0
:1058300027374748494A042084F83600012084F875
:105840008E002046FFF73EF900BFFBF78FFC00BF3C
:105850003046FAF741FD00BF00BF4EE0052084F856
:105860003600012084F88E0000BFFBF77FFC00BFEC
:105870003046FAF731FD00BF00BF3EE0062084F855
:105880003600012084F88E0000BFFBF76FFC00BFDC
:105890003046FAF721FD00BF00BF2EE0072084F854
:1058A0003600012084F88E0000BFFBF75FFC00BFCC
:1058B0003046FAF711FD00BF00BF1EE000BF00BF79
:1058C00000BF94F88E00401C84F88E0000BFFBF7E8
:1058D0004DFC00BF3046FAF7FFFC00BF00BF0CE0F4
:1058E00000BFFBF743FC00BF3046FAF7F5FC00BFF2
:1058F00000BF46F62D60288090E700BFFCF76AFFE6
:1059000000BF8BE718010020A800002070B51546E5
:10591000066846B90D6500264E618E61C86101605A
:105920000126868033E0046802682B4624E0166D69
:105930009E421DD396696EB90B6500268E614A6141
:10594000C861166DF61A1665916101608688761C2D
:1059500086800CE094690B658C614A61C861166DA4
:10596000F61A1665916161618688761C868070BD25
:10597000166D9B1B14465269002AD8D10B658C61A9
:1059800000264E61C86161618688761C868000BFF2
:10599000EDE700002DE9F04104460D4690461F4614
:1059A000B8F1040F0ED1284800682E1A16F5803F72
:1059B00001D8002E3CD10020206547F27E2038809F
:1059C000BDE8F081B8F1080F29D11F49606D096861
:1059D000081AA84205D92E461B480068284460656D
:1059E00026E01949606D0968081A2E1A16F5803FDD
:1059F00000D886B91449606D0968081AB0FBF5F043
:105A000005FB0050616D084460650020206547F289
:105A10007E203880D4E7606D2844606508E00DB1D1
:105A20002E4605E00020206547F27E203880C7E73B
:105A3000012084F83600324621460448FFF766FF0D
:105A40000020388000BFBBE7E0000020E800002015
:105A500030B5C26983694169ABB929B900241460C2
:105A600094800465C4611EE000248C610C6D056D9A
:105A70002C440C6511609488641E94800024446159
:105A80000465C4610FE0596121B18B610C6D056D36
:105A90002C440C65002484619488641E9480002446
:105AA00044610465C46130BD2DE9F0474FF0000941
:105AB00000BF00BFFAF70CFC814600BFFBF73CFBC0
:105AC00000BFFBF7C7FB064600271E4D2C683CB302
:105AD000206D401E20651FE0781C87B294F83600C8
